:02000000D32902
:06000600000000000800EC
:10000C000F3083120313FC004730FD00FD0B0C284E
:0A001C00FC0B0C2800000000080097
:0E002600213083120313FD00FD0B1728080084
:1000340083160313AE1B21288312881123288312ED
:10004400881583162E1B2928831208112B28831246
:1000540008158316AE1A31288312881033288312A8
:10006400881483162E1A3928831208103B28831209
:10007400081483162418412883120816432883126F
:1000840008128816032088128316AE194C2883128E
:1000940088114E288312881583162E19542883122A
:1000A40008115628831208158316AE185C2883128B
:1000B40088105E288312881483162E1864288312ED
:1000C4000810662883120814831624186C288312D7
:1000D40008166E28831208128816032088128316C5
:0C00E400241C7628062077281320080032
:1000F000063083120313FD00FD0B7C28000008006E
:1001000083160313A901AB01AC011030AD0004301C
:100110002C020318B528F030831286008030F000DE
:100120007008063E840083162D09F00070088000D8
:10013000032003200F3083120605F0007008831699
:10014000AA0070080319AF282B08A9002A08031970
:10015000AD28AA0CAA13A90AA6280430AC00AD0D3C
:100160002D100430AB07AC0A87282908F0000800DE
:100170008316031324102908AE001A2083162414B2
:02018000080075
:10018200D328803083160313A500E628C030A500CB
:10019200E6289430A500E628D430A500E628803071
:1001A200A500E628831603132508013A0319C2287D
:1001B2002508023A0319C7282508033A0319CA2851
:1001C2002508043A0319CD28D0282603F000250873
:1001D200F0077008A5007008AE001A2083162410DC
:1001E200A801280827078400000803190029280805
:1001F200270784000008A900B820A80AF2282414BE
:020202000800F2
:100204008316031388120812081088100811881125
:100214008312881208128811081188100810062009
:100224000620062088140814881603208812062045
:1002340088160320881206208816032088120620B8
:1002440008108816032088120620881603208812B6
:10025400881088158816032088120620881108142F
:100264008816032088120810881603208812062096
:100274008816032088120814881603208812062082
:100284000810881603208812881508158814081485
:0E029400881603208812062083162414080002
:1002A20080207008A5000F3083120605F0000319A4
:0E02B2005C297820542983162508F0000800E6
:0E02C000831203136F088A006E088200080084
:1002CE00803083120313F0007008063E8400FF3066
:0402DE008000080094
:1002E20083160313A20151217008A2007008003A7C
:0602F20003197429080045
:1002F8000B3083120313FB002630FC005D30FD0039
:10030800FD0B8429FC0B8429FB0B842900000000C9
:020318000800DB
:10031A0083160313A00151217008A0007008003A47
:06032A00031990290800F0
:1003300083160313A10151217008A1007008003A2F
:0603400003199B290800CF
:1003460060218A110A128000840AEE0A0319EF0A54
:08035600F003031DA3290800B8
:10035E008316031789018801FF3086000313880175
:10036E0087018312870102210C30AE001A20013062
:10037E008316A5000230A6002030A700C1206721F9
:02038E00080065
:1003900083160313A30151217008A3007008003ACB
:0603A0000319CB2908003F
:1003A6009822AF21C821982171218D21DD29323073
:1003B600A300E1292308023A0319DA29E529353091
:1003C600A100E9292108063A0319E229ED29363068
:1003D600A200F1292208073A0319EA29F52937303C
:1003E600A000F9292008093A0319F2292308323A0C
:1003F600031D1F2A2108353A031D1F2A2208363AF3
:10040600031D1F2A2008373A031D1F2A0130AE009C
:100416001A2001308316A5000230A6004830A70036
:10042600C1200230A5000430A6003E30A700C1203E
:10043600831287160714422A01308316AE001A204B
:1004460001308316A5000230A6002F30A700C12078
:100456007C2101308316AE001A2001308316A500D8
:100466000330A6005730A700C1200230A500053092
:10047600A6006530A700C120831287120710D52970
:02048600432A07
:10053000203084004E3083120313F0004930EE0067
:080540000230EF00A3210800C6
:1004920045344E345434453452342034503441348B
:0E04A2005334533457344F34523444340034FE
:1004B000573452344F344E3447342034503441345E
:0E04C0005334533457344F34523444340034E0
:1004CE0044344F344F34523420344F345034453446
:0404DE004E34003464
:1004E2004134433443344534533453342034473451
:0E04F200523441344E345434453444340034D2
:1005000045344E34543445345234203443344F341B
:0C05100052345234453443345434003427
:10051C00503441345334533457344F3452344434BC
:02052C00003499
:04400E00F22F000786
:00000001FF
